:020000040000FA
:040000000160046037
:040001000164506FD7
:04000200016877A07A
:04000300016C7A4DC5
:04000400017059F03E
:040005000174189DCD
:040006000177B77E49
:04000700017B36F251
:04000800017E997369
:040009000181E07918
:04000A0001850BFD64
:04000B0001881CF15B
:04000C00018B164B03
:04000D00018DF66CFF
:04000E000190BF2A74
:04000F000193725097
:04001000019610093C
:040011000198986E4C
:04001200019B0DD26F
:04001300019D7032A9
:04001400019FBFCABF
:0400150001A1FD5EEA
:0400160001A42AE136
:0400170001A64712E5
:0400180001A8530EDA
:0400190001AA504E9A
:04001A0001AC3EED0A
:04001B0001AE1F22F1
:04001C0001AFF1FF40
:04001D0001B1B792E4
:04001E0001B36FD9E2
:04001F0001B51B7B91
:0400200001B6BBA3C7
:0400210001B85002D0
:0400220001B9D99CAB
:0400230001BB58992C
:0400240001BCCC96B9
:0400250001BE3641A1
:0400260001BF96E19F
:0400270001C0ED9196
:0400280001C23BC70F
:0400290001C380E3AC
:04002A0001C4BD63ED
:04002B0001C5F1BE5C
:04002C0001C71D7E6D
:04002D0001C842D4F0
:04002E0001C95FBAEB
:04002F0001CA74D8B6
:0400300001CB840775
:0400310001CC8B79FA
:0400320001CD8CF47C
:0400330001CE875C17
:0400340001CF7C2656
:0400350001D06AE5A7
:0400360001D1531190
:0400370001D235A518
:0400380001D313FCE1
:0400390001D3EBD430
:04003A0001D4BEF837
:04003B0001D58CBDA2
:04003C0001D655692B
:04003D0001D719DFEF
:04003E0001D7D936D7
:04003F0001D8944F01
:0400400001D94B7D1A
:0400410001D9FE34AF
:0400420001DAABDB59
:0400430001DB56483F
:0400440001DBFD5E81
:0400450001DC9FB982
:0400460001DD3ED6C4
:0400470001DDDA6A93
:0400480001DE726EF5
:0400490001DF077D4F
:04004A0001DF9886B4
:04004B0001E026FDAD
:04004C0001E0B18F8F
:04004D0001E1395242
:04004E0001E1BE8B83
:04004F0001E240DDAD
:0400500001E2C00FFA
:0400510001E33CFE8D
:0400520001E3B6EE22
:0400530001E42E791D
:0400540001E4A355CB
:0400550001E5154E5E
:0400560001E5856AD1
:0400570001E5F3A22A
:0400580001E65E7AE5
:0400590001E6C831C3
:04005A0001E72F4F3C
:04005B0001E79382A4
:04005C0001E7F6388A
:04005D0001E8576BF4
:04005E0001E8B6F40B
:04005F0001E914049B
:0400600001E96E6ED6
:0400610001E9C7B238
:0400620001EA200E81
:0400630001EA759D9C
:0400640001EACA09DA
:0400650001EB1D0D81
:0400660001EB6DB28B
:0400670001EBBC7677
:0400680001EC0A2C71
:0400690001EC5695BB
:04006A0001ECA239CA
:04006B0001ECEB5069
:04006C0001ED33224D
:04006D0001ED7979AF
:04006E0001EDBF825F
:04006F0001EE039B00
:0400700001EE462B2C
:0400710001EE875CB9
:0400720001EEC7F3E1
:0400730001EF07860C
:0400740001EF45A0B3
:0400750001EF81FC1A
:0400760001EFBDAD2C
:0400770001EFF85B42
:0400780001F0320F52
:0400790001F06AD058
:04007A0001F0A244AB
:04007B0001F0D89523
:04007C0001F10F1D62
:04007D0001F143B793
:04007E0001F17751C4
:04007F0001F1A9D012
:04008000011DBFCFD0
:040081000123D4CCB7
:040082000129B36B32
:04008300012F5F2AC0
:040084000134D97CEE
:04008500013A2553C4
:04008600013F43A74C
:040087000144368179
:04008800014900BC6E
:04008900014DA2BAC9
:04008A0001521E43BE
:04008B00015675693C
:04008C00015AA8BBB2
:04008D00015EBA3026
:04008E000162AA451C
:04008F0001667C2565
:04009000016A2E6B68
:04009100016DC3B585
:0400920001713E4E6C
:0400930001749C5503
:040094000177E135DA
:04009500017B0D02DC
:04009600017E20B611
:0400970001811C8D3A
:04009800018402E4F9
:040099000186D2DC2E
:04009A0001898EC585
:04009B00018C354E51
:04009C00018EC8F316
:04009D00019149F78D
:04009E000193B843CF
:04009F000196169C14
:0400A0000198625D04
:0400A100019A9E5FC3
:0400A200019CCB03EF
:0400A300019EE7D5FE
:0400A40001A0F700C0
:0400A50001A2F6C5F9
:0400A60001A4E8DBEE
:0400A70001A6CDF9E8
:0400A80001A8A63ACB
:0400A90001AA7249ED
:0400AA0001AC31C9AB
:0400AB0001ADE5F5C9
:0400AC0001AF8DF41F
:0400AD0001B12BFF73
:0400AE0001B2BF4B91
:0400AF0001B4473C15
:0400B00001B5C5FDD4
:0400B10001B73B094F
:0400B20001B8A78565
:0400B30001BA0988FD
:0400B40001BB6349E0
:0400B50001BCB49442
:0400B60001BDFD7516
:0400B70001BF3F2B1B
:0400B80001C07822E9
:0400B90001C1A9E5F3
:0400BA0001C2D41A91
:0400BB0001C3F6A3E4
:0400BC0001C5133B2C
:0400BD0001C628D47C
:0400BE0001C73773CC
:0400BF0001C840BF75
:0400C00001C9429997
:0400C10001CA3FA190
:0400C20001CB35C871
:0400C30001CC269CAA
:0400C40001CD12B3A5
:0400C50001CDF9224E
:0400C60001CED9424C
:0400C70001CFB5812F
:0400C80001D08C19BE
:0400C90001D15E768D
:0400CA0001D22C072C
:0400CB0001D2F4EF7B
:0400CC0001D3B98122
:0400CD0001D47A6977
:0400CE0001D53680A2
:0400CF0001D5EEF673
:0400D00001D6A27A39
:0400D10001D75338C8
:0400D20001D7FFAFA4
:0400D30001D8A83375
:0400D40001D94D8180
:0400D50001D9EF60FE
:0400D60001DA8D7B43
:0400D70001DB2873AE
:0400D80001DBC10483
:0400D90001DC55569B
:0400DA0001DCE7C896
:0400DB0001DD764A83
:0400DC0001DE01AA96
:0400DD0001DE8AD0E6
:0400DE0001DF11DF4E
:0400DF0001DF94C6E3
:0400E00001E015EB3B
:0400E10001E0943F67
:0400E20001E10FA782
:0400E30001E1898A24
:0400E40001E201052F
:0400E50001E27510AF
:0400E60001E2E7D874
:0400E70001E357CA10
:0400E80001E3C5C5A6
:0400E90001E431E01D
:0400EA0001E49BCBC7
:0400EB0001E503F632
:0400EC0001E5696061
:0400ED0001E5CDFE5E
:0400EE0001E62F7F79
:0400EF0001E6900492
:0400F00001E6EE8EA9
:0400F10001E74BBA1E
:0400F20001E7A60B71
:0400F30001E7FF889A
:0400F40001E857E8E0
:0400F50001E8AD2F42
:0400F60001E9021208
:0400F70001E95501C5
:0400F80001E9A66C08
:0400F90001E9F629FA
:0400FA0001EA44CB08
:0400FB0001EA923D47
:0400FC0001EADDB385
:0400FD0001EB2814D7
:0400FE0001EB71C9D8
:0400FF0001EBB91741
:00000001ff
