:020000040000FA
:05000000800000007EFD
:05000100817C48ACDE2B
:0500020082F144CAE197
:05000300845F262E07BA
:0500040085C61CF81088
:05000500872657AB0542
:05000600888003399021
:0500070089D34B16F641
:050008008B2059485453
:050009008C67567169CF
:05000A008DA869E2FE73
:05000B008EE3B9A8D04E
:05000C0090196A970342
:05000D009149A053B071
:05000E0092747D6551B4
:05000F00939A233D1E41
:0500100094BAB2405358
:0500110095D649D34F14
:0500120096ED08641BDF
:0500130097FF0B71C90D
:05001400990C6F963FFE
:050015009A15508EDB7E
:050016009B19C944FA2A
:050017009C19F3D36504
:050018009D15E9909424
:050019009E0DC314A9B7
:05001A009F01983F78F2
:05001B009FF1803FC9C8
:05001C00A0DD9199E058
:05001D00A1C5E22C94D6
:05001E00A2AA8737854E
:05001F00A38B9560C4F5
:05002000A46920BA7F75
:05002100A5433CC69060
:05002200A619FC7D1E83
:05002300A6ED724FDFA5
:05002400A7BDB02F266E
:05002500A88AC78E91BE
:05002600A954C969178F
:05002700AA1BC643E521
:05002800AADFCE33DF6A
:05002900ABA0F0DFB9FF
:05002A00AC5F3D84CA3B
:05002B00AD1AC2F9AEA0
:05002C00ADD38FB17B94
:05002D00AE89B1C04ADC
:05002E00AF3D36DB8749
:05002F00AFEE2C5F564E
:05003000B09C9F514B44
:05003100B1489C60BC19
:05003200B1F22FEC7299
:05003300B2996602A570
:05003400B33E4A6574B3
:05003500B3E0E88B7947
:05003600B4814BA2FFA4
:05003700B51F7E946E70
:05003800B5BB8C043390
:05003900B6557E5327BF
:05003A00B6ED5FA39C80
:05003B00B78339D85223
:05003C00B81716983909
:05003D00B8A8FF4F8D83
:05003E00B938FD30E2BD
:05003F00B9C7193807E4
:05004000BA535C2AB078
:05004100BADDCE9A2398
:05004200BB6678E4AD8F
:05004300BBED63381E57
:05004400BC729591ADB6
:05004500BCF617BF58D6
:05004600BD77F162D856
:05004700BDF829F11CC9
:05004800BE76C8B444BF
:05004900BEF3D4CD0858
:05004A00BF6F5532B646
:05004B00BFE950B65AA8
:05004C00C061CE013B84
:05004D00C0D8D3984764
:05004E00C14E67DBD389
:05004F00C1C291084D43
:05005000C2355537D355
:05005100C2A6BA6340E5
:05005200C316C6624365
:05005300C3857EECE610
:05005400C3F2E99C3538
:05005500C45F0BEA9BF3
:05005600C4C9EB35F701
:05005700C5338CBEBFA3
:05005800C59BF5A8C7DF
:05005900C6032AFE8829
:05005A00C66931ADF0A4
:05005B00C6CE0E8BA1D2
:05005C00C731C653DEB0
:05005D00C7945DA96AD3
:05005E00C7F5D91712DF
:05005F00C8563D10042D
:05006000C8B58DF09C05
:05006100C913CFFFCF21
:05006200C971076E20CA
:05006300C9CD38561361
:05006400CA2866BECEB3
:05006500CA82969A8A90
:05006600CADBCBC76FEF
:05006700CB340A10FA81
:05006800CB8B552FE2D7
:05006900CBE1B0CA2844
:05006A00CC3720743BBF
:05006B00CC8BA7AFDB08
:05006C00CCDF49EF2C80
:05006D00CD320A92CB28
:05006E00CD83ECEBABBB
:05006F00CDD4F4398E30
:05007000CE2523AD9830
:05007100CE747E696FF2
:05007200CEC30780422F
:05007300CF10C1F5F4FF
:05007400CF5DB0C07279
:05007500CFA9D6C79FD2
:05007600CFF536E6594C
:05007700D03FD3E9DBDE
:05007800D089B09217D1
:05007900D0D2CF92B9C6
:05007A00D11B33929A36
:05007B00D162DF2C97AB
:05007C00D1A9D4F053EE
:05007D00D1F017602B1B
:05007E00D235A8F48456
:05007F00D27A8C1A1476
:050080004AFB0CCCAEB0
:050081004D14DA45B04A
:050082004F2455345429
:050083005129C410A981
:0500840053256AEC1990
:0500850055178B8C47AC
:0500860057006581BA7E
:0500870058E0363FF6D1
:050088005AB7393347AF
:050089005C85A7D469AD
:05008A005E4BB9BDA2B0
:05008B006009A4BD5650
:05008C0061BF9CE7A428
:05008D00636DD4A825FD
:05008E0065147CD1F6B1
:05008F0066B3C4B0657A
:05009000684BDA134E7D
:0500910069DCE960E0FC
:050092006B671DA16D6C
:050093006CEAA08AF9EF
:050094006E679A9195D2
:050095006FDE32EFCF29
:05009600714E8FB3A2C2
:0500970072B8D5C90597
:05009800741D29058222
:05009900757BAC2FE3B4
:05009A0076D4810C8FFB
:05009B007827C863DEB8
:05009C007975A20E19A8
:05009D007ABE2CF946BB
:05009E007C0187322502
:05009F007D3FCDED3CAA
:0500A0007E791D8B17A5
:0500A1007FAD91A38971
:0500A20080DD45099915
:0500A300820851D2C5E6
:0500A400832ED15E8AED
:0500A5008450DC5A0745
:0500A600856E8AC8AF61
:0500A7008687F4083912
:0500A800879D2ED61C0F
:0500A90088AE5155591D
:0500AA0089BB7112A2E8
:0500AB008AC4A30A75E0
:0500AC008BC9FBABDE77
:0500AD008CCB8EDFA6E4
:0500AE008DC970098CF2
:0500AF008EC3B20DDD5F
:0500B0008FBA6756BD88
:0500B10090ADA1D57126
:0500B200919D73080898
:0500B3009289EBFAAD9B
:0500B40093731D4EB224
:0500B5009459173A4ABE
:0500B600953BE98D956A
:0500B700961BA3B5A596
:0500B80096F854BE059E
:0500B90097D20B560C6C
:0500BA0098A8D5D12D2E
:0500BB00997CC22B1826
:0500BC009A4DDE0AA9C7
:0500BD009B1C36C25639
:0500BE009BE7D9546C22
:0500BF009CB0D275A009
:0500C0009D772E8CF776
:0500C1009E3AF9B9456B
:0500C2009EFC3FCFDDB4
:0500C3009FBB0C6178F9
:0500C400A0776ABAB24A
:0500C500A13165E58B8F
:0500C600A1E908ABEB0D
:0500C700A29E5D9A9469
:0500C800A3516EFFEAE8
:0500C900A40246F0A5B1
:0500CA00A4B0EF475E49
:0500CB00A55D71A6DD3A
:0500CC00A607D77BD957
:0500CD00A6B029FE337E
:0500CE00A756723195F8
:0500CF00A7FAB8E88D5E
:0500D000A89D06C3C756
:0500D100A93D6435D4D7
:0500D200A9DBD981A7A4
:0500D300AA786EBDAD2E
:0500D400AB132BD4C4A6
:0500D500ABAC18868BA6
:0500D600AC433C68E6AC
:0500D700ACD89EE9AB6E
:0500D800AD6C474EFB7A
:0500D900ADFE3CB76420
:0500DA00AE8E861DC47E
:0500DB00AF1D2A562CA8
:0500DC00AFAA30125C28
:0500DD00B0359DE13B80
:0500DE00B0BF7A2F6C99
:0500DF00B147CB4764AE
:0500E000B1CE97552D83
:0500E100B253E463D6F8
:0500E200B2D7B8600D6B
:0500E300B35A19191FBA
:0500E400B3DB0C3FE955
:0500E500B45A9768F811
:0500E600B4D8C00DEDCF
:0500E700B5558B8BAD47
:0500E800B5D0FF259FCB
:0500E900B64B2004BE2F
:0500EA00B6C3F338A2CB
:0500EB00B73B7DB828C1
:0500EC00B7B1C4618DF5
:0500ED00B826CBFC9CCD
:0500EE00B89A99385793
:0500EF00B90D30AEBDAB
:0500F000B97E96E2D686
:0500F100B9EED04288C9
:0500F200BA5DE125C329
:0500F300BACBCDD19C49
:0500F400BB389A75C63F
:0500F500BBA44B2DC46B
:0500F600BC0EE403B59F
:0500F700BC7868ED3447
:0500F800BCE0DDCE5666
:0500F900BD484678F54A
:0500FA00BDAEA6AD72D1
:0500FB00BE14021B070A
:0500FC00BE785C5FA668
:0500FD00BEDBB9095F44
:0500FE00BF3E1B962827
:0500FF00BF9F87733470
:00000001ff
