:020000040000FA
:03000000010000FC
:030001000100FFFC
:030002000101FEFB
:030003000102FBFC
:030004000103F8FD
:030005000104F300
:030006000105EE03
:030007000106E807
:030008000107E00D
:030009000108D813
:03000A000109CF1A
:03000B00010AC522
:03000C00010BBB2A
:03000D00010CAF34
:03000E00010DA33E
:03000F00010E954A
:03001000010F8756
:0300110001107863
:0300120001116871
:0300130001125780
:030014000113468F
:03001500011433A0
:03001600011520B1
:0300170001160CC3
:030018000116F8D6
:030019000117E2EA
:03001A000118CCFE
:03001B000119B513
:03001C00011A9D29
:03001D00011B853F
:03001E00011C6C56
:03001F00011D526E
:03002000011E3787
:03002100011F1CA0
:03002200012000BA
:030023000120E3D6
:030024000121C5F2
:030025000122A70E
:030026000123882B
:0300270001246948
:0300280001254867
:0300290001262885
:03002A00012706A5
:03002B000127E4C6
:03002C000128C1E7
:03002D0001299E08
:03002E00012A792B
:03002F00012B554D
:03003000012C2F71
:03003100012D0995
:03003200012DE3BA
:03003300012EBBE0
:03003400012F9405
:0300350001306B2C
:0300360001314253
:030037000132197A
:030038000132EEA4
:030039000133C4CC
:03003A00013498F6
:03003B0001356C20
:03003C000136404A
:03003D0001371375
:03003E000137E5A2
:03003F000138B7CE
:03004000013988FB
:03004100013A5928
:03004200013B2956
:03004300013BF985
:03004400013CC8B4
:03004500013D97E3
:03004600013E6513
:03004700013F3244
:0300480001400074
:030049000140CCA7
:03004A00014198D9
:03004B000142640B
:03004C0001432F3E
:03004D000143F973
:03004E000144C3A7
:03004F0001458DDB
:0300500001465610
:0300510001471E46
:030052000147E77C
:030053000148AEB3
:03005400014975EA
:03005500014A3C21
:03005600014B0259
:03005700014BC892
:03005800014C8DCB
:03005900014D5204
:03005A00014E163E
:03005B00014EDA79
:03005C00014F9EB3
:03005D00015061EE
:03005E0001512429
:03005F000151E666
:030060000152A7A3
:03006100015369DF
:0300620001542A1C
:030063000154EA5B
:030064000155AA99
:0300650001566AD7
:0300660001572916
:030067000157E856
:030068000158A696
:03006900015964D6
:03006A00015A2216
:03006B00015ADF58
:03006C00015B9B9A
:03006D00015C58DB
:03006E00015D141D
:03006F00015DCF61
:03007000015E8AA4
:03007100015F45E7
:030072000160002A
:030073000160B970
:03007400016173B4
:0300750001622CF9
:030076000162E53F
:0300770001639E84
:03007800016456CA
:0300790001650D11
:03007A000165C558
:03007B0001667C9F
:03007C00016732E7
:03007D000167E92F
:03007E0001689F77
:03007F00016954C0
:03008000016A0909
:03008100016B739D
:03008200016CDB33
:03008300016E41CA
:03008400016FA663
:0300850001710AFC
:0300860001726D97
:030087000173CE34
:0300880001752ED1
:0300890001768C71
:03008A000177EA11
:03008B00017946B2
:03008C00017AA155
:03008D00017BFAFA
:03008E00017D529F
:03008F00017EAA45
:03009000018000EC
:0300910001815496
:030092000182A840
:030093000183FAEC
:0300940001854B98
:0300950001869C45
:030096000187EBF4
:03009700018938A4
:03009800018A8555
:03009900018BD107
:03009A00018D1CB9
:03009B00018E656E
:03009C00018FAE23
:03009D000190F5DA
:03009E0001923B91
:03009F0001938149
:0300A0000194C503
:0300A100019608BD
:0300A20001974B78
:0300A30001988C35
:0300A4000199CCF3
:0300A500019B0CB0
:0300A600019C4A70
:0300A700019D8731
:0300A800019EC4F2
:0300A90001A000B3
:0300AA0001A13A77
:0300AB0001A2743B
:0300AC0001A3AD00
:0300AD0001A4E4C7
:0300AE0001A61B8D
:0300AF0001A75155
:0300B00001A8871D
:0300B10001A9BBE7
:0300B20001AAEEB2
:0300B30001AC217C
:0300B40001AD5348
:0300B50001AE8415
:0300B60001AFB4E3
:0300B70001B0E3B2
:0300B80001B21181
:0300B90001B33F51
:0300BA0001B46B23
:0300BB0001B597F5
:0300BC0001B6C3C7
:0300BD0001B7ED9B
:0300BE0001B9166F
:0300BF0001BA3F44
:0300C00001BB671A
:0300C10001BC8EF1
:0300C20001BDB5C8
:0300C30001BEDBA0
:0300C40001C00078
:0300C50001C12452
:0300C60001C2472D
:0300C70001C36A08
:0300C80001C48CE4
:0300C90001C5ADC1
:0300CA0001C6CE9E
:0300CB0001C7EE7C
:0300CC0001C90D5A
:0300CD0001CA2B3A
:0300CE0001CB491A
:0300CF0001CC66FB
:0300D00001CD82DD
:0300D10001CE9EBF
:0300D20001CFB9A2
:0300D30001D0D386
:0300D40001D1ED6A
:0300D50001D3064E
:0300D60001D41E34
:0300D70001D5361A
:0300D80001D64D01
:0300D90001D763E9
:0300DA0001D879D1
:0300DB0001D98EBA
:0300DC0001DAA2A4
:0300DD0001DBB68E
:0300DE0001DCCA78
:0300DF0001DDDC64
:0300E00001DEEE50
:0300E10001E0003B
:0300E20001E11029
:0300E30001E22017
:0300E40001E33005
:0300E50001E43FF4
:0300E60001E54DE4
:0300E70001E65BD4
:0300E80001E768C5
:0300E90001E875B6
:0300EA0001E981A8
:0300EB0001EA8C9B
:0300EC0001EB978E
:0300ED0001ECA281
:0300EE0001EDAC75
:0300EF0001EEB56A
:0300F00001EFBD60
:0300F10001F0C655
:0300F20001F1CD4C
:0300F30001F2D443
:0300F40001F3DB3A
:0300F50001F4E132
:0300F60001F5E62B
:0300F70001F6EB24
:0300F80001F7EF1E
:0300F90001F8F318
:0300FA0001F9F613
:0300FB0001FAF90E
:0300FC0001FBFB0A
:0300FD0001FCFD06
:0300FE0001FDFE03
:0300FF0001FEFF00
:00000001ff
