:020000040000FA
:0200000000FFFF
:0200010000FFFE
:0200020000FEFE
:0200030000FDFE
:0200040000FCFE
:0200050000FBFE
:0200060000FAFE
:0200070000F9FE
:0200080000F8FE
:0200090000F7FE
:02000A0000F6FE
:02000B0000F5FE
:02000C0000F4FE
:02000D0000F3FE
:02000E0000F3FD
:02000F0000F2FD
:0200100000F1FD
:0200110000F0FD
:0200120000EFFD
:0200130000EEFD
:0200140000EEFC
:0200150000EDFC
:0200160000ECFC
:0200170000EBFC
:0200180000EAFC
:0200190000EAFB
:02001A0000E9FB
:02001B0000E8FB
:02001C0000E7FB
:02001D0000E7FA
:02001E0000E6FA
:02001F0000E5FA
:0200200000E4FA
:0200210000E4F9
:0200220000E3F9
:0200230000E2F9
:0200240000E2F8
:0200250000E1F8
:0200260000E0F8
:0200270000E0F7
:0200280000DFF7
:0200290000DEF7
:02002A0000DEF6
:02002B0000DDF6
:02002C0000DCF6
:02002D0000DCF5
:02002E0000DBF5
:02002F0000DAF5
:0200300000DAF4
:0200310000D9F4
:0200320000D9F3
:0200330000D8F3
:0200340000D7F3
:0200350000D7F2
:0200360000D6F2
:0200370000D6F1
:0200380000D5F1
:0200390000D4F1
:02003A0000D4F0
:02003B0000D3F0
:02003C0000D3EF
:02003D0000D2EF
:02003E0000D2EE
:02003F0000D1EE
:0200400000D1ED
:0200410000D0ED
:0200420000CFED
:0200430000CFEC
:0200440000CEEC
:0200450000CEEB
:0200460000CDEB
:0200470000CDEA
:0200480000CCEA
:0200490000CCE9
:02004A0000CBE9
:02004B0000CBE8
:02004C0000CAE8
:02004D0000CAE7
:02004E0000C9E7
:02004F0000C9E6
:0200500000C8E6
:0200510000C8E5
:0200520000C7E5
:0200530000C7E4
:0200540000C6E4
:0200550000C6E3
:0200560000C5E3
:0200570000C5E2
:0200580000C5E1
:0200590000C4E1
:02005A0000C4E0
:02005B0000C3E0
:02005C0000C3DF
:02005D0000C2DF
:02005E0000C2DE
:02005F0000C1DE
:0200600000C1DD
:0200610000C1DC
:0200620000C0DC
:0200630000C0DB
:0200640000BFDB
:0200650000BFDA
:0200660000BEDA
:0200670000BED9
:0200680000BED8
:0200690000BDD8
:02006A0000BDD7
:02006B0000BCD7
:02006C0000BCD6
:02006D0000BCD5
:02006E0000BBD5
:02006F0000BBD4
:0200700000BAD4
:0200710000BAD3
:0200720000BAD2
:0200730000B9D2
:0200740000B9D1
:0200750000B9D0
:0200760000B8D0
:0200770000B8CF
:0200780000B7CF
:0200790000B7CE
:02007A0000B7CD
:02007B0000B6CD
:02007C0000B6CC
:02007D0000B6CB
:02007E0000B5CB
:02007F0000B5CA
:02008000016A13
:02008100016814
:02008200016714
:02008300016515
:02008400016415
:02008500016315
:02008600016116
:02008700016016
:02008800015F16
:02008900015D17
:02008A00015C17
:02008B00015B17
:02008C00015A17
:02008D00015818
:02008E00015718
:02008F00015618
:02009000015518
:02009100015418
:02009200015219
:02009300015119
:02009400015019
:02009500014F19
:02009600014E19
:02009700014D19
:02009800014C19
:02009900014B19
:02009A00014A19
:02009B0001481A
:02009C0001471A
:02009D0001461A
:02009E0001451A
:02009F0001441A
:0200A00001431A
:0200A10001421A
:0200A20001411A
:0200A30001401A
:0200A400013F1A
:0200A500013E1A
:0200A600013D1A
:0200A700013C1A
:0200A800013C19
:0200A900013B19
:0200AA00013A19
:0200AB00013919
:0200AC00013819
:0200AD00013719
:0200AE00013619
:0200AF00013519
:0200B000013419
:0200B100013319
:0200B200013318
:0200B300013218
:0200B400013118
:0200B500013018
:0200B600012F18
:0200B700012E18
:0200B800012D18
:0200B900012D17
:0200BA00012C17
:0200BB00012B17
:0200BC00012A17
:0200BD00012917
:0200BE00012916
:0200BF00012816
:0200C000012716
:0200C100012616
:0200C200012615
:0200C300012515
:0200C400012415
:0200C500012315
:0200C600012314
:0200C700012214
:0200C800012114
:0200C900012014
:0200CA00012013
:0200CB00011F13
:0200CC00011E13
:0200CD00011E12
:0200CE00011D12
:0200CF00011C12
:0200D000011C11
:0200D100011B11
:0200D200011A11
:0200D300011911
:0200D400011910
:0200D500011810
:0200D600011710
:0200D70001170F
:0200D80001160F
:0200D90001160E
:0200DA0001150E
:0200DB0001140E
:0200DC0001140D
:0200DD0001130D
:0200DE0001120D
:0200DF0001120C
:0200E00001110C
:0200E10001110B
:0200E20001100B
:0200E300010F0B
:0200E400010F0A
:0200E500010E0A
:0200E600010E09
:0200E700010D09
:0200E800010C09
:0200E900010C08
:0200EA00010B08
:0200EB00010B07
:0200EC00010A07
:0200ED00010A06
:0200EE00010906
:0200EF00010806
:0200F000010805
:0200F100010705
:0200F200010704
:0200F300010604
:0200F400010603
:0200F500010503
:0200F600010502
:0200F700010402
:0200F800010401
:0200F900010301
:0200FA00010300
:0200FB00010200
:0200FC000102FF
:0200FD000101FF
:0200FE000101FE
:0200FF000100FE
:00000001ff
